:100000000C945F000C9474000C9474000C947400B5
:100010000C9474000C9474000C9474000C94740090
:100020000C9474000C9474000C9474000C94740080
:100030000C9474000C9474000C9474000C94740070
:100040000C9474000C9474000C9474000C94740060
:100050000C9474000C9474000C9474000C94740050
:100060000C9474000C94740088018C0193019A0123
:10007000A101A801AC01B301BA01C101C701C701C7
:10008000C701C701C701C701C701C900D000D70018
:10009000E400EB00EF00F9000001040108010F018A
:1000A0001901230127012E0132013C0146015001B3
:1000B000540158015F0166016D017701810111242E
:1000C0001FBECFEFD8E0DEBFCDBF11E0A0E0B1E0B2
:1000D000E6E1F4E002C005900D92AC30B107D9F72B
:1000E0000E94D7010C9409020C9400008823B1F0FF
:1000F0002D9A2FED33E994E0215030409040E1F704
:1001000000C000002D982FED33E994E021503040DD
:100110009040E1F700C00000815051F72FED33E926
:1001200084E0215030408040E1F700C00000089595
:100130008823B1F02D9A2FEB37E299E0215030401F
:100140009040E1F700C000002D982FED33E994E0D6
:10015000215030409040E1F700C00000815051F73D
:100160002FED33E984E0215030408040E1F700C0BA
:1001700000000895082E000C990B0E940102C09700
:100180008B32910508F003C18C5C9F4FFC010C94ED
:10019000FB0181E00E94760081E00E9498000895B2
:1001A00081E00E94980083E00E947600089581E03B
:1001B0000E94980081E00E94760081E00E949800F1
:1001C00081E00E947600089581E00E94980082E01C
:1001D0000E947600089581E00E947600089582E0F2
:1001E0000E94760081E00E94980081E00E947600E3
:1001F000089582E00E94980081E00E9476000895B0
:1002000084E00E947600089582E00E9476000895BE
:1002100081E00E94760083E00E949800089581E0CA
:100220000E94980081E00E94760081E00E94980080
:10023000089581E00E94760081E00E94980082E0AB
:100240000E947600089582E00E949800089581E05F
:100250000E94980081E00E947600089583E00E9449
:100260009800089581E00E94760082E00E94980044
:1002700081E00E947600089582E00E94980081E06B
:100280000E94760081E00E949800089581E00E941B
:10029000760081E00E94980081E00E947600089537
:1002A00083E00E947600089581E00E9498000895FE
:1002B00082E00E94760081E00E949800089583E029
:1002C0000E94760081E00E949800089581E00E94DB
:1002D000760082E00E949800089581E00E949800D4
:1002E00082E00E94760081E00E949800089581E0FB
:1002F0000E94980081E00E94760082E00E949800AF
:10030000089582E00E94980082E00E94760008959D
:1003100085E00E949800089581E00E94760084E0C4
:100320000E949800089582E00E94760083E00E9477
:100330009800089583E00E94760082E00E94980071
:10034000089584E00E94760081E00E94980008955C
:1003500085E00E947600089581E00E94980084E084
:100360000E947600089582E00E94980083E00E9437
:100370007600089583E00E94980082E00E94760053
:10038000089584E00E94980081E00E94760008951C
:10039000CF93DF93EC018881882331F021960E946E
:1003A000BA0089918111FBCFDF91CF910895259AF1
:1003B000559A5D9A2FEB87E299E02150804090405A
:1003C000E1F700C000005D982FED83E994E0215033
:1003D00080409040E1F700C0000080E091E00E9482
:1003E000C8012FEB87E299E0215080409040E1F76F
:1003F00000C00000DECFEE0FFF1F0590F491E02D4E
:1004000009949111089581568A5108F480528558B3
:060410000895F894FFCFEF
:0C04160048454C4C4F20574F524C4400BE
:00000001FF
