:100000000C945F000C9474000C9474000C947400B5
:100010000C9474000C9474000C9474000C94740090
:100020000C9474000C9474000C9474000C94740080
:100030000C9474000C9474000C9474000C94740070
:100040000C9474000C9474000C9474000C94740060
:100050000C9474000C9474000C9474000C94740050
:100060000C9474000C9474009D01A101A801AF01CF
:10007000B601BD01C101C801CF01D601DC01DC011F
:10008000DC01DC01DC01DC01DC01DE00E500EC0070
:10009000F900000104010E01150119011D012401DF
:1000A0002E0138013C014301470151015B0165010B
:1000B00069016D0174017B0182018C01960111249B
:1000C0001FBECFEFD8E0DEBFCDBF11E0A0E0B1E0B2
:1000D000E8E2F4E002C005900D92AC30B107D9F728
:1000E0000E94EE010C9412020C9400005D9A2FEB1A
:1000F00087E299E0215080409040E1F700C0000085
:100100005D982FED83E994E0215080409040E1F725
:1001100000C0000008958823B1F02D9A2FED33E937
:1001200094E0215030409040E1F700C000002D984D
:100130002FED33E994E0215030409040E1F700C0CA
:100140000000815051F72FED33E984E02150304019
:100150008040E1F700C0000008958823B1F02D9A97
:100160002FEB37E299E0215030409040E1F700C09A
:1001700000002D982FED33E994E02150304090405D
:10018000E1F700C00000815051F72FED33E984E022
:10019000215030408040E1F700C000000895082E53
:1001A000000C990B0E940A02C0978B32910508F04F
:1001B00003C18C5C9F4FFC010C94040281E00E94FF
:1001C0008B0081E00E94AD00F7C081E00E94AD008D
:1001D00083E00E948B00F0C081E00E94AD0081E0CE
:1001E0000E948B0081E00E94AD0081E00E948B00A4
:1001F000E3C081E00E94AD0082E00E948B00DCC081
:1002000081E00E948B00D8C082E00E948B0081E0D8
:100210000E94AD0081E00E948B00CEC082E00E946F
:10022000AD0081E00E948B00C7C084E00E948B007B
:10023000C3C082E00E948B00BFC081E00E948B009F
:1002400083E00E94AD00B8C081E00E94AD0081E073
:100250000E948B0081E00E94AD00AEC081E00E9450
:100260008B0081E00E94AD0082E00E948B00A4C060
:1002700082E00E94AD00A0C081E00E94AD0081E05C
:100280000E948B0099C083E00E94AD0095C081E080
:100290000E948B0082E00E94AD0081E00E948B00F2
:1002A0008BC082E00E94AD0081E00E948B0081E063
:1002B0000E94AD0081C081E00E948B0081E00E941D
:1002C000AD0081E00E948B0077C083E00E948B002C
:1002D00073C081E00E94AD006FC082E00E948B007D
:1002E00081E00E94AD0068C083E00E948B0081E045
:1002F0000E94AD0061C081E00E948B0082E00E94FC
:10030000AD005AC081E00E94AD0082E00E948B00E7
:1003100081E00E94AD0050C081E00E94AD0081E00C
:100320000E948B0082E00E94AD0046C082E00E94E5
:10033000AD0082E00E948B003FC085E00E94AD00CE
:100340003BC081E00E948B0084E00E94AD0034C07D
:1003500082E00E948B0083E00E94AD002DC083E00C
:100360000E948B0082E00E94AD0026C084E00E94C3
:100370008B0081E00E94AD001FC085E00E948B00D1
:100380001BC081E00E94AD0084E00E948B0014C07D
:1003900082E00E94AD0083E00E948B000DC083E0EC
:1003A0000E94AD0082E00E948B0006C084E00E94A3
:1003B000AD0081E00E948B000E9476000895CF93EB
:1003C000DF93EC018881882331F021960E94CF00D1
:1003D00089918111FBCFDF91CF910895259A559A8C
:1003E0000E9476000E9476000E94760080E091E0F4
:1003F0000E94DF012FEB87E299E02150804090407E
:10040000E1F700C00000ECCFEE0FFF1F0590F49164
:10041000E02D09949111089581568A5108F4805273
:0804200085580895F894FFCF00
:0C04280048454C4C4F20574F524C4400AC
:00000001FF
