:100000000C9434000C943E000C943E000C943E0082
:100010000C943E000C943E000C943E000C943E0068
:100020000C943E000C943E000C943E000C943E0058
:100030000C943E000C943E000C943E000C943E0048
:100040000C943E000C943E000C943E000C943E0038
:100050000C943E000C943E000C943E000C943E0028
:100060000C943E000C943E0011241FBECFEFD8E04C
:10007000DEBFCDBF0E9440000C946A000C940000CB
:10008000259A2D9A2FE181EA97E0215080409040F7
:10009000E1F700C000002D9827E28EE59BE021509B
:1000A00080409040E1F700C000002D9A2FE181EAE6
:1000B00097E0215080409040E1F700C000002D986B
:1000C0002FEC82E193E1215080409040E1F700C0A5
:0800D0000000D7CFF894FFCF28
:00000001FF
